{
    "_format": "hh-sol-artifact-1",
    "contractName": "PublicResolver",
    "sourceName": "contracts/resolver/PublicResolver.sol",
    "abi": [
        {
            "inputs": [
                {
                    "internalType": "contract Registry",
                    "name": "_registry",
                    "type": "address"
                },
                {
                    "internalType": "contract INameWrapper",
                    "name": "wrapperAddress",
                    "type": "address"
                }
            ],
            "stateMutability": "nonpayable",
            "type": "constructor"
        },
        {
            "anonymous": false,
            "inputs": [
                {
                    "indexed": true,
                    "internalType": "bytes32",
                    "name": "node",
                    "type": "bytes32"
                },
                {
                    "indexed": false,
                    "internalType": "address",
                    "name": "a",
                    "type": "address"
                }
            ],
            "name": "AddrChanged",
            "type": "event"
        },
        {
            "anonymous": false,
            "inputs": [
                {
                    "indexed": true,
                    "internalType": "address",
                    "name": "owner",
                    "type": "address"
                },
                {
                    "indexed": true,
                    "internalType": "address",
                    "name": "operator",
                    "type": "address"
                },
                {
                    "indexed": false,
                    "internalType": "bool",
                    "name": "approved",
                    "type": "bool"
                }
            ],
            "name": "ApprovalForAll",
            "type": "event"
        },
        {
            "anonymous": false,
            "inputs": [
                {
                    "indexed": true,
                    "internalType": "bytes32",
                    "name": "node",
                    "type": "bytes32"
                },
                {
                    "indexed": false,
                    "internalType": "string",
                    "name": "name",
                    "type": "string"
                }
            ],
            "name": "NameChanged",
            "type": "event"
        },
        {
            "inputs": [
                {
                    "internalType": "bytes32",
                    "name": "node",
                    "type": "bytes32"
                }
            ],
            "name": "addr",
            "outputs": [
                {
                    "internalType": "address",
                    "name": "",
                    "type": "address"
                }
            ],
            "stateMutability": "view",
            "type": "function"
        },
        {
            "inputs": [
                {
                    "internalType": "address",
                    "name": "account",
                    "type": "address"
                },
                {
                    "internalType": "address",
                    "name": "operator",
                    "type": "address"
                }
            ],
            "name": "isApprovedForAll",
            "outputs": [
                {
                    "internalType": "bool",
                    "name": "",
                    "type": "bool"
                }
            ],
            "stateMutability": "view",
            "type": "function"
        },
        {
            "inputs": [
                {
                    "internalType": "bytes32",
                    "name": "node",
                    "type": "bytes32"
                }
            ],
            "name": "name",
            "outputs": [
                {
                    "internalType": "string",
                    "name": "",
                    "type": "string"
                }
            ],
            "stateMutability": "view",
            "type": "function"
        },
        {
            "inputs": [
                {
                    "internalType": "bytes32",
                    "name": "node",
                    "type": "bytes32"
                },
                {
                    "internalType": "address",
                    "name": "_address",
                    "type": "address"
                }
            ],
            "name": "setAddr",
            "outputs": [],
            "stateMutability": "nonpayable",
            "type": "function"
        },
        {
            "inputs": [
                {
                    "internalType": "address",
                    "name": "operator",
                    "type": "address"
                },
                {
                    "internalType": "bool",
                    "name": "approved",
                    "type": "bool"
                }
            ],
            "name": "setApprovalForAll",
            "outputs": [],
            "stateMutability": "nonpayable",
            "type": "function"
        },
        {
            "inputs": [
                {
                    "internalType": "bytes32",
                    "name": "node",
                    "type": "bytes32"
                },
                {
                    "internalType": "string",
                    "name": "newName",
                    "type": "string"
                }
            ],
            "name": "setName",
            "outputs": [],
            "stateMutability": "nonpayable",
            "type": "function"
        },
        {
            "inputs": [
                {
                    "internalType": "bytes4",
                    "name": "interfaceID",
                    "type": "bytes4"
                }
            ],
            "name": "supportsInterface",
            "outputs": [
                {
                    "internalType": "bool",
                    "name": "",
                    "type": "bool"
                }
            ],
            "stateMutability": "pure",
            "type": "function"
        }
    ],
    "bytecode": "0x60806040523480156200001157600080fd5b506040516200147938038062001479833981810160405281019062000037919062000184565b81600260006101000a81548173ffffffffffffffffffffffffffffffffffffffff021916908373ffffffffffffffffffffffffffffffffffffffff16021790555080600360006101000a81548173ffffffffffffffffffffffffffffffffffffffff021916908373ffffffffffffffffffffffffffffffffffffffff1602179055505050620001cb565b600080fd5b600073ffffffffffffffffffffffffffffffffffffffff82169050919050565b6000620000f382620000c6565b9050919050565b60006200010782620000e6565b9050919050565b6200011981620000fa565b81146200012557600080fd5b50565b60008151905062000139816200010e565b92915050565b60006200014c82620000e6565b9050919050565b6200015e816200013f565b81146200016a57600080fd5b50565b6000815190506200017e8162000153565b92915050565b600080604083850312156200019e576200019d620000c1565b5b6000620001ae8582860162000128565b9250506020620001c1858286016200016d565b9150509250929050565b61129e80620001db6000396000f3fe608060405234801561001057600080fd5b506004361061007d5760003560e01c8063773722131161005b5780637737221314610112578063a22cb4651461012e578063d5fa2b001461014a578063e985e9c5146101665761007d565b806301ffc9a7146100825780633b3b57de146100b2578063691f3431146100e2575b600080fd5b61009c60048036038101906100979190610a0f565b610196565b6040516100a99190610a57565b60405180910390f35b6100cc60048036038101906100c79190610aa8565b610278565b6040516100d99190610b16565b60405180910390f35b6100fc60048036038101906100f79190610aa8565b6102b4565b6040516101099190610bc1565b60405180910390f35b61012c60048036038101906101279190610c48565b610359565b005b61014860048036038101906101439190610d00565b6103cf565b005b610164600480360381019061015f9190610d40565b61053a565b005b610180600480360381019061017b9190610d80565b6105db565b60405161018d9190610a57565b60405180910390f35b60007fef3eb579000000000000000000000000000000000000000000000000000000007bffffffffffffffffffffffffffffffffffffffffffffffffffffffff1916827bffffffffffffffffffffffffffffffffffffffffffffffffffffffff1916148061026157507f1fd7df85000000000000000000000000000000000000000000000000000000007bffffffffffffffffffffffffffffffffffffffffffffffffffffffff1916827bffffffffffffffffffffffffffffffffffffffffffffffffffffffff1916145b8061027157506102708261066f565b5b9050919050565b600080600083815260200190815260200160002060009054906101000a900473ffffffffffffffffffffffffffffffffffffffff169050919050565b60606001600083815260200190815260200160002080546102d490610def565b80601f016020809104026020016040519081016040528092919081815260200182805461030090610def565b801561034d5780601f106103225761010080835404028352916020019161034d565b820191906000526020600020905b81548152906001019060200180831161033057829003601f168201915b50505050509050919050565b82610363816106e9565b61036c57600080fd5b828260016000878152602001908152602001600020918261038e929190611010565b50837fb7d29e911041e8d9b843369e890bcb72c9388692ba48b65ac54e7214c4c348f784846040516103c192919061111c565b60405180910390a250505050565b8173ffffffffffffffffffffffffffffffffffffffff163373ffffffffffffffffffffffffffffffffffffffff160361043d576040517f08c379a0000000000000000000000000000000000000000000000000000000008152600401610434906111b2565b60405180910390fd5b80600460003373ffffffffffffffffffffffffffffffffffffffff1673ffffffffffffffffffffffffffffffffffffffff16815260200190815260200160002060008473ffffffffffffffffffffffffffffffffffffffff1673ffffffffffffffffffffffffffffffffffffffff16815260200190815260200160002060006101000a81548160ff0219169083151502179055508173ffffffffffffffffffffffffffffffffffffffff163373ffffffffffffffffffffffffffffffffffffffff167f17307eab39ab6107e8899845ad3d59bd9653f200f220920489ca2b5937696c318360405161052e9190610a57565b60405180910390a35050565b81610544816106e9565b61054d57600080fd5b827f52d7d861f09ab3d26239d492e8968629f95e9e318cf0b73bfddc441522a15fd28360405161057d9190610b16565b60405180910390a28160008085815260200190815260200160002060006101000a81548173ffffffffffffffffffffffffffffffffffffffff021916908373ffffffffffffffffffffffffffffffffffffffff160217905550505050565b6000600460008473ffffffffffffffffffffffffffffffffffffffff1673ffffffffffffffffffffffffffffffffffffffff16815260200190815260200160002060008373ffffffffffffffffffffffffffffffffffffffff1673ffffffffffffffffffffffffffffffffffffffff16815260200190815260200160002060009054906101000a900460ff16905092915050565b60007f691f3431000000000000000000000000000000000000000000000000000000007bffffffffffffffffffffffffffffffffffffffffffffffffffffffff1916827bffffffffffffffffffffffffffffffffffffffffffffffffffffffff191614806106e257506106e1826108c9565b5b9050919050565b600080600260009054906101000a900473ffffffffffffffffffffffffffffffffffffffff1673ffffffffffffffffffffffffffffffffffffffff166302571be3846040518263ffffffff1660e01b815260040161074791906111e1565b602060405180830381865afa158015610764573d6000803e3d6000fd5b505050506040513d601f19601f820116820180604052508101906107889190611211565b9050600360009054906101000a900473ffffffffffffffffffffffffffffffffffffffff1673ffffffffffffffffffffffffffffffffffffffff168173ffffffffffffffffffffffffffffffffffffffff160361088157600360009054906101000a900473ffffffffffffffffffffffffffffffffffffffff1673ffffffffffffffffffffffffffffffffffffffff16636352211e8460001c6040518263ffffffff1660e01b815260040161083d919061124d565b602060405180830381865afa15801561085a573d6000803e3d6000fd5b505050506040513d601f19601f8201168201806040525081019061087e9190611211565b90505b3373ffffffffffffffffffffffffffffffffffffffff168173ffffffffffffffffffffffffffffffffffffffff1614806108c157506108c081336105db565b5b915050919050565b60007f3b3b57de000000000000000000000000000000000000000000000000000000007bffffffffffffffffffffffffffffffffffffffffffffffffffffffff1916827bffffffffffffffffffffffffffffffffffffffffffffffffffffffff1916148061093c575061093b82610943565b5b9050919050565b60007f01ffc9a7000000000000000000000000000000000000000000000000000000007bffffffffffffffffffffffffffffffffffffffffffffffffffffffff1916827bffffffffffffffffffffffffffffffffffffffffffffffffffffffff1916149050919050565b600080fd5b600080fd5b60007fffffffff0000000000000000000000000000000000000000000000000000000082169050919050565b6109ec816109b7565b81146109f757600080fd5b50565b600081359050610a09816109e3565b92915050565b600060208284031215610a2557610a246109ad565b5b6000610a33848285016109fa565b91505092915050565b60008115159050919050565b610a5181610a3c565b82525050565b6000602082019050610a6c6000830184610a48565b92915050565b6000819050919050565b610a8581610a72565b8114610a9057600080fd5b50565b600081359050610aa281610a7c565b92915050565b600060208284031215610abe57610abd6109ad565b5b6000610acc84828501610a93565b91505092915050565b600073ffffffffffffffffffffffffffffffffffffffff82169050919050565b6000610b0082610ad5565b9050919050565b610b1081610af5565b82525050565b6000602082019050610b2b6000830184610b07565b92915050565b600081519050919050565b600082825260208201905092915050565b60005b83811015610b6b578082015181840152602081019050610b50565b60008484015250505050565b6000601f19601f8301169050919050565b6000610b9382610b31565b610b9d8185610b3c565b9350610bad818560208601610b4d565b610bb681610b77565b840191505092915050565b60006020820190508181036000830152610bdb8184610b88565b905092915050565b600080fd5b600080fd5b600080fd5b60008083601f840112610c0857610c07610be3565b5b8235905067ffffffffffffffff811115610c2557610c24610be8565b5b602083019150836001820283011115610c4157610c40610bed565b5b9250929050565b600080600060408486031215610c6157610c606109ad565b5b6000610c6f86828701610a93565b935050602084013567ffffffffffffffff811115610c9057610c8f6109b2565b5b610c9c86828701610bf2565b92509250509250925092565b610cb181610af5565b8114610cbc57600080fd5b50565b600081359050610cce81610ca8565b92915050565b610cdd81610a3c565b8114610ce857600080fd5b50565b600081359050610cfa81610cd4565b92915050565b60008060408385031215610d1757610d166109ad565b5b6000610d2585828601610cbf565b9250506020610d3685828601610ceb565b9150509250929050565b60008060408385031215610d5757610d566109ad565b5b6000610d6585828601610a93565b9250506020610d7685828601610cbf565b9150509250929050565b60008060408385031215610d9757610d966109ad565b5b6000610da585828601610cbf565b9250506020610db685828601610cbf565b9150509250929050565b7f4e487b7100000000000000000000000000000000000000000000000000000000600052602260045260246000fd5b60006002820490506001821680610e0757607f821691505b602082108103610e1a57610e19610dc0565b5b50919050565b600082905092915050565b7f4e487b7100000000000000000000000000000000000000000000000000000000600052604160045260246000fd5b60008190508160005260206000209050919050565b60006020601f8301049050919050565b600082821b905092915050565b600060088302610ebc7fffffffffffffffffffffffffffffffffffffffffffffffffffffffffffffffff82610e7f565b610ec68683610e7f565b95508019841693508086168417925050509392505050565b6000819050919050565b6000819050919050565b6000610f0d610f08610f0384610ede565b610ee8565b610ede565b9050919050565b6000819050919050565b610f2783610ef2565b610f3b610f3382610f14565b848454610e8c565b825550505050565b600090565b610f50610f43565b610f5b818484610f1e565b505050565b5b81811015610f7f57610f74600082610f48565b600181019050610f61565b5050565b601f821115610fc457610f9581610e5a565b610f9e84610e6f565b81016020851015610fad578190505b610fc1610fb985610e6f565b830182610f60565b50505b505050565b600082821c905092915050565b6000610fe760001984600802610fc9565b1980831691505092915050565b60006110008383610fd6565b9150826002028217905092915050565b61101a8383610e20565b67ffffffffffffffff81111561103357611032610e2b565b5b61103d8254610def565b611048828285610f83565b6000601f8311600181146110775760008415611065578287013590505b61106f8582610ff4565b8655506110d7565b601f19841661108586610e5a565b60005b828110156110ad57848901358255600182019150602085019450602081019050611088565b868310156110ca57848901356110c6601f891682610fd6565b8355505b6001600288020188555050505b50505050505050565b82818337600083830152505050565b60006110fb8385610b3c565b93506111088385846110e0565b61111183610b77565b840190509392505050565b600060208201905081810360008301526111378184866110ef565b90509392505050565b7f455243313135353a2073657474696e6720617070726f76616c2073746174757360008201527f20666f722073656c660000000000000000000000000000000000000000000000602082015250565b600061119c602983610b3c565b91506111a782611140565b604082019050919050565b600060208201905081810360008301526111cb8161118f565b9050919050565b6111db81610a72565b82525050565b60006020820190506111f660008301846111d2565b92915050565b60008151905061120b81610ca8565b92915050565b600060208284031215611227576112266109ad565b5b6000611235848285016111fc565b91505092915050565b61124781610ede565b82525050565b6000602082019050611262600083018461123e565b9291505056fea264697066735822122002a81f8d65db0491405f547a2f280e8da3f4137a507bab98a4f7ade3eb68f50464736f6c63430008110033",
    "linkReferences": {},
    "deployedLinkReferences": {}
}