{
    "_format": "hh-sol-artifact-1",
    "contractName": "RegistrarController",
    "sourceName": "contracts/registrar/RegistrarController.sol",
    "abi": [
        {
            "inputs": [
                {
                    "internalType": "contract NamedRegistrar",
                    "name": "_base",
                    "type": "address"
                },
                {
                    "internalType": "contract PriceOracle",
                    "name": "_prices",
                    "type": "address"
                }
            ],
            "stateMutability": "nonpayable",
            "type": "constructor"
        },
        {
            "anonymous": false,
            "inputs": [
                {
                    "indexed": false,
                    "internalType": "string",
                    "name": "name",
                    "type": "string"
                },
                {
                    "indexed": true,
                    "internalType": "bytes32",
                    "name": "label",
                    "type": "bytes32"
                },
                {
                    "indexed": true,
                    "internalType": "address",
                    "name": "owner",
                    "type": "address"
                },
                {
                    "indexed": false,
                    "internalType": "uint256",
                    "name": "cost",
                    "type": "uint256"
                },
                {
                    "indexed": false,
                    "internalType": "uint256",
                    "name": "expires",
                    "type": "uint256"
                }
            ],
            "name": "NameRegistered",
            "type": "event"
        },
        {
            "anonymous": false,
            "inputs": [
                {
                    "indexed": false,
                    "internalType": "string",
                    "name": "name",
                    "type": "string"
                },
                {
                    "indexed": true,
                    "internalType": "bytes32",
                    "name": "label",
                    "type": "bytes32"
                },
                {
                    "indexed": false,
                    "internalType": "uint256",
                    "name": "cost",
                    "type": "uint256"
                },
                {
                    "indexed": false,
                    "internalType": "uint256",
                    "name": "expires",
                    "type": "uint256"
                }
            ],
            "name": "NameRenewed",
            "type": "event"
        },
        {
            "anonymous": false,
            "inputs": [
                {
                    "indexed": true,
                    "internalType": "address",
                    "name": "oracle",
                    "type": "address"
                }
            ],
            "name": "NewPriceOracle",
            "type": "event"
        },
        {
            "anonymous": false,
            "inputs": [
                {
                    "indexed": true,
                    "internalType": "address",
                    "name": "previousOwner",
                    "type": "address"
                },
                {
                    "indexed": true,
                    "internalType": "address",
                    "name": "newOwner",
                    "type": "address"
                }
            ],
            "name": "OwnershipTransferred",
            "type": "event"
        },
        {
            "inputs": [],
            "name": "MIN_REGISTRATION_DURATION",
            "outputs": [
                {
                    "internalType": "uint256",
                    "name": "",
                    "type": "uint256"
                }
            ],
            "stateMutability": "view",
            "type": "function"
        },
        {
            "inputs": [
                {
                    "internalType": "string",
                    "name": "name",
                    "type": "string"
                }
            ],
            "name": "available",
            "outputs": [
                {
                    "internalType": "bool",
                    "name": "",
                    "type": "bool"
                }
            ],
            "stateMutability": "view",
            "type": "function"
        },
        {
            "inputs": [],
            "name": "owner",
            "outputs": [
                {
                    "internalType": "address",
                    "name": "",
                    "type": "address"
                }
            ],
            "stateMutability": "view",
            "type": "function"
        },
        {
            "inputs": [
                {
                    "internalType": "string",
                    "name": "name",
                    "type": "string"
                },
                {
                    "internalType": "address",
                    "name": "owner",
                    "type": "address"
                },
                {
                    "internalType": "uint256",
                    "name": "duration",
                    "type": "uint256"
                }
            ],
            "name": "register",
            "outputs": [],
            "stateMutability": "payable",
            "type": "function"
        },
        {
            "inputs": [
                {
                    "internalType": "string",
                    "name": "name",
                    "type": "string"
                },
                {
                    "internalType": "address",
                    "name": "owner",
                    "type": "address"
                },
                {
                    "internalType": "uint256",
                    "name": "duration",
                    "type": "uint256"
                },
                {
                    "internalType": "address",
                    "name": "resolver",
                    "type": "address"
                },
                {
                    "internalType": "address",
                    "name": "addr",
                    "type": "address"
                }
            ],
            "name": "registerWithConfig",
            "outputs": [],
            "stateMutability": "payable",
            "type": "function"
        },
        {
            "inputs": [
                {
                    "internalType": "string",
                    "name": "name",
                    "type": "string"
                },
                {
                    "internalType": "uint256",
                    "name": "duration",
                    "type": "uint256"
                }
            ],
            "name": "renew",
            "outputs": [],
            "stateMutability": "payable",
            "type": "function"
        },
        {
            "inputs": [],
            "name": "renounceOwnership",
            "outputs": [],
            "stateMutability": "nonpayable",
            "type": "function"
        },
        {
            "inputs": [
                {
                    "internalType": "string",
                    "name": "name",
                    "type": "string"
                },
                {
                    "internalType": "uint256",
                    "name": "duration",
                    "type": "uint256"
                }
            ],
            "name": "rentPrice",
            "outputs": [
                {
                    "internalType": "uint256",
                    "name": "",
                    "type": "uint256"
                }
            ],
            "stateMutability": "view",
            "type": "function"
        },
        {
            "inputs": [
                {
                    "internalType": "contract PriceOracle",
                    "name": "_prices",
                    "type": "address"
                }
            ],
            "name": "setPriceOracle",
            "outputs": [],
            "stateMutability": "nonpayable",
            "type": "function"
        },
        {
            "inputs": [
                {
                    "internalType": "address",
                    "name": "newOwner",
                    "type": "address"
                }
            ],
            "name": "transferOwnership",
            "outputs": [],
            "stateMutability": "nonpayable",
            "type": "function"
        },
        {
            "inputs": [
                {
                    "internalType": "string",
                    "name": "name",
                    "type": "string"
                }
            ],
            "name": "valid",
            "outputs": [
                {
                    "internalType": "bool",
                    "name": "",
                    "type": "bool"
                }
            ],
            "stateMutability": "pure",
            "type": "function"
        }
    ],
    "bytecode": "0x60806040523480156200001157600080fd5b50604051620020ca380380620020ca833981810160405281019062000037919062000270565b620000576200004b620000e160201b60201c565b620000e960201b60201c565b81600160006101000a81548173ffffffffffffffffffffffffffffffffffffffff021916908373ffffffffffffffffffffffffffffffffffffffff16021790555080600260006101000a81548173ffffffffffffffffffffffffffffffffffffffff021916908373ffffffffffffffffffffffffffffffffffffffff1602179055505050620002b7565b600033905090565b60008060009054906101000a900473ffffffffffffffffffffffffffffffffffffffff169050816000806101000a81548173ffffffffffffffffffffffffffffffffffffffff021916908373ffffffffffffffffffffffffffffffffffffffff1602179055508173ffffffffffffffffffffffffffffffffffffffff168173ffffffffffffffffffffffffffffffffffffffff167f8be0079c531659141344cd1fd0a4f28419497f9722a3daafe3b4186f6b6457e060405160405180910390a35050565b600080fd5b600073ffffffffffffffffffffffffffffffffffffffff82169050919050565b6000620001df82620001b2565b9050919050565b6000620001f382620001d2565b9050919050565b6200020581620001e6565b81146200021157600080fd5b50565b6000815190506200022581620001fa565b92915050565b60006200023882620001d2565b9050919050565b6200024a816200022b565b81146200025657600080fd5b50565b6000815190506200026a816200023f565b92915050565b600080604083850312156200028a5762000289620001ad565b5b60006200029a8582860162000214565b9250506020620002ad8582860162000259565b9150509250929050565b611e0380620002c76000396000f3fe60806040526004361061009c5760003560e01c80639791c097116100645780639791c09714610174578063acf1a841146101b1578063aeb8ce9b146101cd578063b2d3ed391461020a578063d393c87114610226578063f2fde38b146102425761009c565b8063530e784f146100a1578063715018a6146100ca57806383e7f6ff146100e15780638a95b09f1461011e5780638da5cb5b14610149575b600080fd5b3480156100ad57600080fd5b506100c860048036038101906100c39190611274565b61026b565b005b3480156100d657600080fd5b506100df61031c565b005b3480156100ed57600080fd5b506101086004803603810190610103919061141d565b610330565b6040516101159190611488565b60405180910390f35b34801561012a57600080fd5b506101336103d8565b6040516101409190611488565b60405180910390f35b34801561015557600080fd5b5061015e6103df565b60405161016b91906114b2565b60405180910390f35b34801561018057600080fd5b5061019b600480360381019061019691906114cd565b610408565b6040516101a89190611531565b60405180910390f35b6101cb60048036038101906101c691906115ac565b61041e565b005b3480156101d957600080fd5b506101f460048036038101906101ef91906114cd565b6105e1565b6040516102019190611531565b60405180910390f35b610224600480360381019061021f9190611638565b6106a6565b005b610240600480360381019061023b91906116cf565b610cba565b005b34801561024e57600080fd5b5061026960048036038101906102649190611743565b610d12565b005b610273610d95565b80600260006101000a81548173ffffffffffffffffffffffffffffffffffffffff021916908373ffffffffffffffffffffffffffffffffffffffff160217905550600260009054906101000a900473ffffffffffffffffffffffffffffffffffffffff1673ffffffffffffffffffffffffffffffffffffffff167ff261845a790fe29bbd6631e2ca4a5bdc83e6eed7c3271d9590d97287e00e912360405160405180910390a250565b610324610d95565b61032e6000610e13565b565b6000600260009054906101000a900473ffffffffffffffffffffffffffffffffffffffff1673ffffffffffffffffffffffffffffffffffffffff166319b989a084846040518363ffffffff1660e01b815260040161038f9291906117ef565b602060405180830381865afa1580156103ac573d6000803e3d6000fd5b505050506040513d601f19601f820116820180604052508101906103d09190611834565b905092915050565b6224ea0081565b60008060009054906101000a900473ffffffffffffffffffffffffffffffffffffffff16905090565b6000600161041583610ed7565b10159050919050565b600061046e84848080601f016020809104026020016040519081016040528093929190818152602001838380828437600081840152601f19601f8201169050808301925050505050505083610330565b90508034101561047d57600080fd5b6000848460405161048f929190611891565b604051809103902090506000600160009054906101000a900473ffffffffffffffffffffffffffffffffffffffff1673ffffffffffffffffffffffffffffffffffffffff1663c475abff8360001c866040518363ffffffff1660e01b81526004016104fb9291906118aa565b6020604051808303816000875af115801561051a573d6000803e3d6000fd5b505050506040513d601f19601f8201168201806040525081019061053e9190611834565b90508234111561059b573373ffffffffffffffffffffffffffffffffffffffff166108fc843461056e9190611902565b9081150290604051600060405180830381858888f19350505050158015610599573d6000803e3d6000fd5b505b817f3da24c024582931cfaf8267d8ed24d13a82a8068d5bd337d30ec45cea4e506ae878786856040516105d19493929190611963565b60405180910390a2505050505050565b600080828051906020012090506105f783610408565b801561069e5750600160009054906101000a900473ffffffffffffffffffffffffffffffffffffffff1673ffffffffffffffffffffffffffffffffffffffff166396e494e88260001c6040518263ffffffff1660e01b815260040161065c9190611488565b602060405180830381865afa158015610679573d6000803e3d6000fd5b505050506040513d601f19601f8201168201806040525081019061069d91906119cf565b5b915050919050565b60006106b2868561119f565b905060008680519060200120905060008160001c905060008073ffffffffffffffffffffffffffffffffffffffff168673ffffffffffffffffffffffffffffffffffffffff1614610b2357600160009054906101000a900473ffffffffffffffffffffffffffffffffffffffff1673ffffffffffffffffffffffffffffffffffffffff1663fca247ac83308a6040518463ffffffff1660e01b815260040161075c939291906119fc565b6020604051808303816000875af115801561077b573d6000803e3d6000fd5b505050506040513d601f19601f8201168201806040525081019061079f9190611834565b90506000600160009054906101000a900473ffffffffffffffffffffffffffffffffffffffff1673ffffffffffffffffffffffffffffffffffffffff1663ddf7fcb06040518163ffffffff1660e01b8152600401602060405180830381865afa158015610810573d6000803e3d6000fd5b505050506040513d601f19601f820116820180604052508101906108349190611a69565b84604051602001610846929190611ab7565b604051602081830303815290604052805190602001209050600160009054906101000a900473ffffffffffffffffffffffffffffffffffffffff1673ffffffffffffffffffffffffffffffffffffffff16637b1039996040518163ffffffff1660e01b8152600401602060405180830381865afa1580156108cb573d6000803e3d6000fd5b505050506040513d601f19601f820116820180604052508101906108ef9190611b21565b73ffffffffffffffffffffffffffffffffffffffff16631896f70a82896040518363ffffffff1660e01b8152600401610929929190611b5d565b600060405180830381600087803b15801561094357600080fd5b505af1158015610957573d6000803e3d6000fd5b50505050600073ffffffffffffffffffffffffffffffffffffffff168673ffffffffffffffffffffffffffffffffffffffff16146109fd578673ffffffffffffffffffffffffffffffffffffffff1663d5fa2b0082886040518363ffffffff1660e01b81526004016109ca929190611b5d565b600060405180830381600087803b1580156109e457600080fd5b505af11580156109f8573d6000803e3d6000fd5b505050505b600160009054906101000a900473ffffffffffffffffffffffffffffffffffffffff1673ffffffffffffffffffffffffffffffffffffffff166328ed4f6c848b6040518363ffffffff1660e01b8152600401610a5a929190611b86565b600060405180830381600087803b158015610a7457600080fd5b505af1158015610a88573d6000803e3d6000fd5b50505050600160009054906101000a900473ffffffffffffffffffffffffffffffffffffffff1673ffffffffffffffffffffffffffffffffffffffff166323b872dd308b866040518463ffffffff1660e01b8152600401610aeb93929190611baf565b600060405180830381600087803b158015610b0557600080fd5b505af1158015610b19573d6000803e3d6000fd5b5050505050610c01565b600073ffffffffffffffffffffffffffffffffffffffff168573ffffffffffffffffffffffffffffffffffffffff1614610b5c57600080fd5b600160009054906101000a900473ffffffffffffffffffffffffffffffffffffffff1673ffffffffffffffffffffffffffffffffffffffff1663fca247ac838a8a6040518463ffffffff1660e01b8152600401610bbb939291906119fc565b6020604051808303816000875af1158015610bda573d6000803e3d6000fd5b505050506040513d601f19601f82011682018060405250810190610bfe9190611834565b90505b8773ffffffffffffffffffffffffffffffffffffffff16837fca6abbe9d7f11422cb6ca7629fbf6fe9efb1c621f71ce8f02b9f2a230097404f8b8785604051610c4c93929190611be6565b60405180910390a383341115610caf573373ffffffffffffffffffffffffffffffffffffffff166108fc8534610c829190611902565b9081150290604051600060405180830381858888f19350505050158015610cad573d6000803e3d6000fd5b505b505050505050505050565b610d0c84848080601f016020809104026020016040519081016040528093929190818152602001838380828437600081840152601f19601f8201169050808301925050505050505083836000806106a6565b50505050565b610d1a610d95565b600073ffffffffffffffffffffffffffffffffffffffff168173ffffffffffffffffffffffffffffffffffffffff1603610d89576040517f08c379a0000000000000000000000000000000000000000000000000000000008152600401610d8090611c96565b60405180910390fd5b610d9281610e13565b50565b610d9d6111e8565b73ffffffffffffffffffffffffffffffffffffffff16610dbb6103df565b73ffffffffffffffffffffffffffffffffffffffff1614610e11576040517f08c379a0000000000000000000000000000000000000000000000000000000008152600401610e0890611d02565b60405180910390fd5b565b60008060009054906101000a900473ffffffffffffffffffffffffffffffffffffffff169050816000806101000a81548173ffffffffffffffffffffffffffffffffffffffff021916908373ffffffffffffffffffffffffffffffffffffffff1602179055508173ffffffffffffffffffffffffffffffffffffffff168173ffffffffffffffffffffffffffffffffffffffff167f8be0079c531659141344cd1fd0a4f28419497f9722a3daafe3b4186f6b6457e060405160405180910390a35050565b60008060008084519050600092505b80821015611193576000858381518110610f0357610f02611d22565b5b602001015160f81c60f81b9050600382118015610f2b5750600282610f289190611902565b84105b8015610f5c575060ef60f81b817effffffffffffffffffffffffffffffffffffffffffffffffffffffffffffff1916145b8015610fb6575060b860f81b86600185610f769190611d51565b81518110610f8757610f86611d22565b5b602001015160f81c60f81b7effffffffffffffffffffffffffffffffffffffffffffffffffffffffffffff1916145b80156110105750608f60f81b86600285610fd09190611d51565b81518110610fe157610fe0611d22565b5b602001015160f81c60f81b7effffffffffffffffffffffffffffffffffffffffffffffffffffffffffffff1916145b1561102257600094505050505061119a565b608060f81b817effffffffffffffffffffffffffffffffffffffffffffffffffffffffffffff191610156110645760018361105d9190611d51565b925061117f565b60e060f81b817effffffffffffffffffffffffffffffffffffffffffffffffffffffffffffff191610156110a65760028361109f9190611d51565b925061117e565b60f060f81b817effffffffffffffffffffffffffffffffffffffffffffffffffffffffffffff191610156110e8576003836110e19190611d51565b925061117d565b60f8801b817effffffffffffffffffffffffffffffffffffffffffffffffffffffffffffff19161015611129576004836111229190611d51565b925061117c565b60fc60f81b817effffffffffffffffffffffffffffffffffffffffffffffffffffffffffffff1916101561116b576005836111649190611d51565b925061117b565b6006836111789190611d51565b92505b5b5b5b5b50828061118b90611d85565b935050610ee6565b8293505050505b919050565b60006111aa836105e1565b6111b357600080fd5b60006111bf8484610330565b90506224ea008310156111d157600080fd5b803410156111de57600080fd5b8091505092915050565b600033905090565b6000604051905090565b600080fd5b600080fd5b600073ffffffffffffffffffffffffffffffffffffffff82169050919050565b600061122f82611204565b9050919050565b600061124182611224565b9050919050565b61125181611236565b811461125c57600080fd5b50565b60008135905061126e81611248565b92915050565b60006020828403121561128a576112896111fa565b5b60006112988482850161125f565b91505092915050565b600080fd5b600080fd5b6000601f19601f8301169050919050565b7f4e487b7100000000000000000000000000000000000000000000000000000000600052604160045260246000fd5b6112f4826112ab565b810181811067ffffffffffffffff82111715611313576113126112bc565b5b80604052505050565b60006113266111f0565b905061133282826112eb565b919050565b600067ffffffffffffffff821115611352576113516112bc565b5b61135b826112ab565b9050602081019050919050565b82818337600083830152505050565b600061138a61138584611337565b61131c565b9050828152602081018484840111156113a6576113a56112a6565b5b6113b1848285611368565b509392505050565b600082601f8301126113ce576113cd6112a1565b5b81356113de848260208601611377565b91505092915050565b6000819050919050565b6113fa816113e7565b811461140557600080fd5b50565b600081359050611417816113f1565b92915050565b60008060408385031215611434576114336111fa565b5b600083013567ffffffffffffffff811115611452576114516111ff565b5b61145e858286016113b9565b925050602061146f85828601611408565b9150509250929050565b611482816113e7565b82525050565b600060208201905061149d6000830184611479565b92915050565b6114ac81611224565b82525050565b60006020820190506114c760008301846114a3565b92915050565b6000602082840312156114e3576114e26111fa565b5b600082013567ffffffffffffffff811115611501576115006111ff565b5b61150d848285016113b9565b91505092915050565b60008115159050919050565b61152b81611516565b82525050565b60006020820190506115466000830184611522565b92915050565b600080fd5b600080fd5b60008083601f84011261156c5761156b6112a1565b5b8235905067ffffffffffffffff8111156115895761158861154c565b5b6020830191508360018202830111156115a5576115a4611551565b5b9250929050565b6000806000604084860312156115c5576115c46111fa565b5b600084013567ffffffffffffffff8111156115e3576115e26111ff565b5b6115ef86828701611556565b9350935050602061160286828701611408565b9150509250925092565b61161581611224565b811461162057600080fd5b50565b6000813590506116328161160c565b92915050565b600080600080600060a08688031215611654576116536111fa565b5b600086013567ffffffffffffffff811115611672576116716111ff565b5b61167e888289016113b9565b955050602061168f88828901611623565b94505060406116a088828901611408565b93505060606116b188828901611623565b92505060806116c288828901611623565b9150509295509295909350565b600080600080606085870312156116e9576116e86111fa565b5b600085013567ffffffffffffffff811115611707576117066111ff565b5b61171387828801611556565b9450945050602061172687828801611623565b925050604061173787828801611408565b91505092959194509250565b600060208284031215611759576117586111fa565b5b600061176784828501611623565b91505092915050565b600081519050919050565b600082825260208201905092915050565b60005b838110156117aa57808201518184015260208101905061178f565b60008484015250505050565b60006117c182611770565b6117cb818561177b565b93506117db81856020860161178c565b6117e4816112ab565b840191505092915050565b6000604082019050818103600083015261180981856117b6565b90506118186020830184611479565b9392505050565b60008151905061182e816113f1565b92915050565b60006020828403121561184a576118496111fa565b5b60006118588482850161181f565b91505092915050565b600081905092915050565b60006118788385611861565b9350611885838584611368565b82840190509392505050565b600061189e82848661186c565b91508190509392505050565b60006040820190506118bf6000830185611479565b6118cc6020830184611479565b9392505050565b7f4e487b7100000000000000000000000000000000000000000000000000000000600052601160045260246000fd5b600061190d826113e7565b9150611918836113e7565b92508282039050818111156119305761192f6118d3565b5b92915050565b6000611942838561177b565b935061194f838584611368565b611958836112ab565b840190509392505050565b6000606082019050818103600083015261197e818688611936565b905061198d6020830185611479565b61199a6040830184611479565b95945050505050565b6119ac81611516565b81146119b757600080fd5b50565b6000815190506119c9816119a3565b92915050565b6000602082840312156119e5576119e46111fa565b5b60006119f3848285016119ba565b91505092915050565b6000606082019050611a116000830186611479565b611a1e60208301856114a3565b611a2b6040830184611479565b949350505050565b6000819050919050565b611a4681611a33565b8114611a5157600080fd5b50565b600081519050611a6381611a3d565b92915050565b600060208284031215611a7f57611a7e6111fa565b5b6000611a8d84828501611a54565b91505092915050565b6000819050919050565b611ab1611aac82611a33565b611a96565b82525050565b6000611ac38285611aa0565b602082019150611ad38284611aa0565b6020820191508190509392505050565b6000611aee82611224565b9050919050565b611afe81611ae3565b8114611b0957600080fd5b50565b600081519050611b1b81611af5565b92915050565b600060208284031215611b3757611b366111fa565b5b6000611b4584828501611b0c565b91505092915050565b611b5781611a33565b82525050565b6000604082019050611b726000830185611b4e565b611b7f60208301846114a3565b9392505050565b6000604082019050611b9b6000830185611479565b611ba860208301846114a3565b9392505050565b6000606082019050611bc460008301866114a3565b611bd160208301856114a3565b611bde6040830184611479565b949350505050565b60006060820190508181036000830152611c0081866117b6565b9050611c0f6020830185611479565b611c1c6040830184611479565b949350505050565b7f4f776e61626c653a206e6577206f776e657220697320746865207a65726f206160008201527f6464726573730000000000000000000000000000000000000000000000000000602082015250565b6000611c8060268361177b565b9150611c8b82611c24565b604082019050919050565b60006020820190508181036000830152611caf81611c73565b9050919050565b7f4f776e61626c653a2063616c6c6572206973206e6f7420746865206f776e6572600082015250565b6000611cec60208361177b565b9150611cf782611cb6565b602082019050919050565b60006020820190508181036000830152611d1b81611cdf565b9050919050565b7f4e487b7100000000000000000000000000000000000000000000000000000000600052603260045260246000fd5b6000611d5c826113e7565b9150611d67836113e7565b9250828201905080821115611d7f57611d7e6118d3565b5b92915050565b6000611d90826113e7565b91507fffffffffffffffffffffffffffffffffffffffffffffffffffffffffffffffff8203611dc257611dc16118d3565b5b60018201905091905056fea264697066735822122023eede43b2c24b0954e5cb4214641f62ffa73de7ee301dd4f2f147966118a66d64736f6c63430008110033",
    "linkReferences": {},
    "deployedLinkReferences": {}
}